:020000040800F2
:1000000078070020CD010008AD180008E5150008AC
:100010005D1800082B030008851C00080000000084
:100020000000000000000000000000001D19000892
:100030003903000800000000AF1800081F1900086D
:10004000E7010008E7010008E7010008E7010008F0
:10005000E7010008E7010008E7010008E7010008E0
:10006000E7010008E7010008E70100082D03000888
:10007000E7010008E7010008E7010008E7010008C0
:10008000E7010008E7010008E7010008E7010008B0
:10009000E7010008E7010008E7010008E7010008A0
:1000A000E7010008E7010008E7010008E701000890
:1000B000E7010008E7010008E7010008E701000880
:1000C000E7010008E7010008E7010008E701000870
:1000D000E7010008E7010008E7010008E701000860
:1000E000E7010008E7010008E7010008E701000850
:1000F000E7010008E7010008E7010008E701000840
:10010000E7010008E7010008E7010008E70100082F
:10011000E7010008E7010008E7010008E70100081F
:10012000E7010008E7010008E7010008E70100080F
:1001300000F002F800F03AF80AA090E8000C8244BF
:100140008344AAF10107DA4501D100F02FF8AFF29C
:10015000090EBAE80F0013F0010F18BFFB1A43F0A5
:1001600001031847B01B0000D01B0000103A24BF49
:1001700078C878C1FAD8520724BF30C830C144BF0C
:1001800004680C607047000000230024002500264E
:10019000103A28BF78C1FBD8520728BF30C148BFEA
:1001A0000B6070471FB51FBD10B510BD00F058F8AB
:1001B0001146FFF7F7FF01F077FD00F076F803B482
:1001C000FFF7F2FF03BC00F07DF80000094880470C
:1001D00009480047FEE7FEE7FEE7FEE7FEE7FEE729
:1001E000FEE7FEE7FEE7FEE704480549054A064B41
:1001F000704700009D1900083101000878010020B7
:100200007807002078030020780300204FF00002D8
:1002100000B5134694469646203922BFA0E80C50FC
:10022000A0E80C50B1F12001BFF4F7AF090728BFD7
:10023000A0E80C5048BF0CC05DF804EB890028BF53
:1002400040F8042B08BF704748BF20F8022B11F07C
:10025000804F18BF00F8012B7047704770477047F8
:10026000754600F02BF8AE4605006946534620F06F
:100270000700854618B020B5FFF7B6FFBDE820405F
:100280004FF000064FF000074FF000084FF0000B52
:1002900021F00701AC46ACE8C009ACE8C009ACE805
:1002A000C009ACE8C0098D46704710B50446AFF3ED
:1002B00000802046BDE81040FFF781BF004870472E
:1002C0001401002001491820ABBEFEE72600020001
:1002D0007047000070B5044600688168C943C907CB
:1002E00017D1816821F00101816000F0E3FB054630
:1002F0000AE000BF00F0DEFB401B022804D92068A2
:100300008068C043C00706D020688068C043C0072B
:10031000F0D0002070BDA06A40F01000A062E06A3A
:1003200040F00100E062012070BDFEE7014800F0EE
:100330005DB9000040000020704772B6FEE7000083
:10034000F8B50024009490F824202546012A12D004
:10035000012280F824204A681F23072A0DD206684C
:10036000776B521E02EB820293409F430B689340CF
:100370001F43776319E00220F8BD06680D2A0AD2F0
:10038000376BD21F02EB820293409F430B6893406E
:100390001F43376309E0F76A0D3A02EB820293408C
:1003A0009F430B6893401F43F7620A680723066860
:1003B0000A2A0AD3F7680A3A02EB420293409F43A3
:1003C0008B6893401F43F76008E0376902EB4202F5
:1003D00093409F438B6893401F4337610A68102AFC
:1003E00001D0112A20D1124B02689A4217D193688A
:1003F0001B0219D4936843F4000393600968102921
:1004000012D10C490C4A0968B1FBF2F101EB8101F0
:10041000490000E0491E00910029FBD104E0816AF7
:1004200041F020018162012480F824502046F8BD6B
:10043000002401400C00002040420F002DE9F04153
:1004400004004FF000057FD0A06A002628B9E662BC
:1004500084F82460204600F081F82046FFF73AFF38
:10046000A16AC90600D420B1A06A40F01000A062C1
:100470006AE0A16A21F4885141F00201A162334986
:1004800023688B42E16904D1B1F5402F01D14FF4CB
:100490000021277B4FF4807C41EA470261680A43D0
:1004A000A168614508D0012906D0002194F814E024
:1004B000BEF1010F02D00AE06146F7E7C7B1A76AB3
:1004C00047F02007A762E76A47F00107E7625F6825
:1004D00027F469470F435F60236899681C4F3940D0
:1004E00011439960A16861450BD0012909D00CE046
:1004F000DFF860E0A7690EEB47370F4347F4006170
:10050000E5E7218A0D05A5F580152168CB6A23F45E
:1005100070032B43CB62216889680F4B19409142CD
:1005200008D1E662A16A21F0020141F00101A16255
:10053000BDE8F081A06A20F0020040F01000A06247
:10054000E06A40F00100E0620120F1E7003C014078
:10055000FDF7E1FF00E0FFFFFE0E1FFF70B586B064
:1005600000260546009601960296039600681A49F1
:1005700088422FD11949886940F4007088618869E0
:1005800000F400700490886940F004008861886974
:10059000694600F0040004900F20009003200190B1
:1005A0000F4800F085F9104C0E48C4E90006802081
:1005B000C4E9026040002061800060612020A061E9
:1005C0000002E061204600F035F908B1FFF7B5FE02
:1005D0002C62656206B070BD00240140001002402C
:1005E0000008014008000240400000202DE9F05FB3
:1005F000C16B0A6801680B68046C4FF0040808FAC4
:1006000004F8844D844E854FDFF814C2DFF814924D
:10061000DFF814A2DFF814B2DFF814E218EA020FD0
:1006200065D05FEA437862D50A68920603D40A6807
:1006300022F004020A60DFF8F0814FF48062016862
:1006400008F1140813011402414524D9A9420DD020
:10065000B1420FD0B9421AD0614515D0494515D0E5
:10066000514501D1120312E0594501D104220EE097
:10067000714501D140220AE06D4D1435A94206D0E2
:100680006B4A2832914201D11A4600E0224667495E
:10069000091F0A6029E0A94213D0B14215D0B9421E
:1006A00020D061451BD049451BD0514502D14FF4A4
:1006B000800217E0414502D14FF0806212E05945B7
:1006C00001D104220EE0714501D140220AE0584DCB
:1006D0001435A94206D0564A2832914201D11A4611
:1006E00000E022464B4908394A60C16A71E04FF088
:1006F000020808FA04F818EA020F70D05FEA83785B
:100700006DD50A68920606D40A6822F00A020A60C9
:10071000012180F82110DFF810814FF40072016888
:1007200008F1140813011402414524D9A9420DD03F
:10073000B1420FD0B9421AD0614515D0494515D004
:10074000514501D1120312E0594501D102220EE0B8
:10075000714501D120220AE0354D1435A94206D059
:10076000334A2832914201D11A4600E022462F49ED
:10077000091F0A6029E0A94213D0B14215D0B9423D
:1007800020D061451BD049451BD0514502D14FF4C3
:10079000001217E0414502D14FF0007212E05945B6
:1007A00001D102220EE0714501D120220AE0204D44
:1007B0001435A94206D01E4A2832914201D11A4668
:1007C00000E02246134908394A60002180F82010D1
:1007D000816A00291CD0BDE8F05F0847FFE70825C3
:1007E000A540154214D01A0712D50A6822F00E024D
:1007F0000A6090F84020C36B012101FA02F25A60AE
:10080000816380F82110002180F82010016BE0E75F
:10081000BDE8F09F080002401C000240300002408A
:1008200044000240580002406C00024008040240AC
:100830001C04024030B560B11A4B026814219A4280
:1008400009D2194B1344B3FBF1F189000164174934
:100850000AE0012030BD134B5B421344B3FBF1F1BE
:10086000890001640F490839C163022180F8211011
:10087000136843F6F0718B43F0E901142143D0E98A
:1008800002452C432143046921434469214384697F
:10089000214319431160002141630122427701770E
:1008A000084630BD08040240F8FFFDBF00000240CA
:1008B0002DE9F84FDFF8C8910024A9F1040B234675
:1008C0000F2709F1040AABF1040ED1E00125A54080
:1008D00006EA0502AA4276D1DFF8A8C14E68A6EB67
:1008E0000C0866452BD00DDC032E34D005DC36B366
:1008F000012E19D0022E2FD11BE0112E16D0122E50
:100900002AD119E0B8F5881F19D006DCB8F5803F68
:1009100015D0B8F5801F1FD111E0B8F5001F0ED01B
:10092000B8F5041F18D10AE0CB6815E0CB681B1D91
:1009300012E0CB6808330FE0CB680C330CE08B6817
:100940002BB1012B4FF0080303D0456104E00423D1
:1009500002E0056100E00023FF2A01D8064601E01D
:1009600000F104064FEA840501D9A5F12005D6F867
:10097000008007FA05FC28EA0C0803FA05F548EAA6
:100980000508C6F800804D68ED0070D53E4DAE6993
:1009900046F00106AE61AD6924F0030605F00105DD
:1009A00000953A4D06EB050CDCF80850A607360F0B
:1009B00007FA06F825EA0805DFF8D480404503D198
:1009C0004FF0000825E052E0DFF8C880404502D132
:1009D0004FF001081DE0DFF8C080404502D14FF024
:1009E000020816E0DFF8B480404502D14FF003085A
:1009F0000FE0DFF8AC80404502D14FF0040808E07A
:100A0000DFF8A080404502D14FF0050801E04FF02B
:100A1000060808FA06F848EA0508CCF808804D6888
:100A2000D9F80060ED024D4601D5164300E096432B
:100A30002E604D68DAF80060AD02554601D51643C8
:100A400000E096432E604D68DBF80060AD035D4624
:100A500001D5164300E096432E604D68DEF8006035
:100A6000ED03754601D5164300E096432E60641CE5
:100A70000A681646E2407FF429AFBDE8F88F00000F
:100A80000804014000001110001002400000014065
:100A900000080140000C014000100140001401401A
:100AA00000180140001C01400AB1016170470904AF
:100AB000FBE700000148806870470000000000204C
:100AC000024881680278114481607047000000206C
:100AD000074810B5016841F010010160032000F0E3
:100AE00075F80F2000F006F800F024F8002010BD83
:100AF0000020024070B50D4D04464FF47A712878FD
:100B0000B1FBF0F00A490968B1FBF0F000F052FBCC
:100B100048B9102C07D200222146501E00F036F8AA
:100B200000206C6070BD012070BD0000000000203E
:100B30000C0000200C4808B5816941F00101816179
:100B4000816901F001010091C16941F08051C161E9
:100B5000C06900F0805000900448416821F0E061D5
:100B600041F00071416008BD0010024000000140EA
:100B7000002809DB00F01F0201219140400980009C
:100B800000F1E020C0F8001170470000F0B40E4BF7
:100B90001B680C46C3F30223C3F10705042D00D9DB
:100BA0000425191D072901D2002300E0DB1E0126C0
:100BB00006FA05F1491E214099409E40761E1640D6
:100BC0003143F0BC01F05FB80CED00E0064900F0E5
:100BD000070208684FF6FF03184040EA0220034A64
:100BE00010430860704700000CED00E00000FA05BB
:100BF0002DE9F84305460078354CC00754D0E0692C
:100C00000026C00008D4E06940F08050E061E0694F
:100C1000012600F0805000902E480168C90512D4CA
:100C20000168804641F480710160FFF743FF074689
:100C300005E000BFFFF73EFFC01B642823D8D8F8AB
:100C40000000C005F6D5206A10F4407021D0A988B4
:100C500001F4407181421CD0206A1F49012220F416
:100C600040700A6000220A602062C00711D0FFF7BE
:100C700021FF074641F2883808E000BFFFF71AFF5E
:100C8000C11B414502D90320BDE8F883206A8007D3
:100C9000F4D5206A696820F44070084320621EB1D0
:100CA000E06920F08050E0612878800705D5606811
:100CB000A96820F44040084360602878C00605D544
:100CC0006068696920F48000084360600020DBE709
:100CD0000010024000700040400442422DE9F047FD
:100CE0000F46050061D0434E306800F00700B8425F
:100CF00009D2306820F0070038433060306800F0D7
:100D00000700B84251D128683B4C810712D54007F3
:100D100003D5606840F4E06060602878000703D580
:100D2000606840F4605060606068A96820F0F0007E
:100D3000084360602878C00728D06868012810D070
:100D40002168022810D0890700292EDA616821F075
:100D5000030101436160FFF7ADFE804641F288392F
:100D60000DE021688903EFE78901EDE7FFF7A2FEB7
:100D7000A0EB0801494502D90320BDE8F08760686F
:100D8000696800F00C00B0EB810FEFD1306800F023
:100D90000700B8420BD9306820F0070038433060B4
:100DA000306800F00700B84201D00120E5E728785C
:100DB000400705D56068E96820F4E060084360609A
:100DC0002878000706D56068296920F4605040EA59
:100DD000C100606000F038F86168084AC1F303118F
:100DE000515CC8400649086006480068FFF782FE6B
:100DF0000020C2E70020024000100240FA1C000858
:100E00000C000020040000200448054900684968DF
:100E1000044AC1F30221515CC84070470C00002015
:100E2000001002400A1D000804480549006849688E
:100E3000044AC1F3C221515CC84070470C00002035
:100E4000001002400A1D00080E4A51680E4801F0C9
:100E50000C03042B11D0082B0FD10C48C1F3834392
:100E6000C903C05C0AD55168084AC1F34041921ECB
:100E7000515C054A5043B0FBF1F0704704494843C8
:100E8000704700000010024000127A00EA1C0008BF
:100E900000093D002DE9F84F040070D02078C04DC6
:100EA000C00749D06868C0F38100012807D068688E
:100EB000C0F38100022809D16868C00306D52868FC
:100EC000800339D560680028E7D035E06068B0F568
:100ED000803F0BD010B1B0F5A02F11D0286820F4BE
:100EE00080302860286820F4802002E0286840F4E0
:100EF00080302860606890B1FFF7DCFD06460AE0AC
:100F0000286840F480202860F0E700BFFFF7D2FD9A
:100F1000801B642873D828688003F7D50CE0FFF79E
:100F2000C9FD064605E000BFFFF7C4FD801B64282D
:100F3000F0D828688003F7D420789A4E80074FF0C5
:100F400001094FF0000839D5686810F00C0F07D080
:100F50006868C0F38100022809D16868C00306D41C
:100F60002868800714D52069012808D110E020697D
:100F7000B0B1C6F80090FFF79DFD074605E00AE115
:100F8000FFF798FDC01B0228C4D828688007F7D552
:100F90002868616920F0F80040EAC10028600DE08F
:100FA000C6F80080FFF786FD074604E0FFF782FDE4
:100FB000C01B022823D828688007F7D420780007B0
:100FC0002CD57948A169D9B1C0F80090FFF772FD1E
:100FD000074604E0FFF76EFDC01B02280FD8686AC1
:100FE0008007F7D571484FF4FA510068B0FBF1F073
:100FF000009000BF0098411E0091FAD20EE080E000
:10100000C0F80080FFF756FD074604E0FFF752FDE9
:10101000C01B022875D8686A8007F7D4207840077B
:1010200060D5E8690027C00008D4E86940F0805026
:10103000E861E869012700F0805000905C48016891
:10104000C90513D40168834641F480710160FFF73C
:1010500031FD824606E000BFFFF72CFDA0EB0A0041
:1010600064284ED8DBF80000C005F5D5E0680128FB
:101070000AD008B1052813D0286A20F001002862A0
:10108000286A20F0040002E0286A40F0010028628B
:10109000E06841F2883B98B1FFF70CFD82460BE017
:1010A000286A40F004002862EEE700BFFFF702FD67
:1010B000A0EB0A0159455AD8286A8007F6D50CE0FA
:1010C000FFF7F8FC824605E0FFF7F4FCA0EB0A010D
:1010D00059454CD8286A8007F6D41FB1E86920F03A
:1010E0008050E861E06988B36968C1F38101022931
:1010F00044D00228C6F8608004D0FFF7DBFC044629
:1011000038E034E0FFF7D6FC074604E0FFF7D2FCF6
:10111000C01B02282BD828688001F7D4206AB0F5BC
:10112000803F05D16868A16820F4003008436860FA
:10113000D4E908010843696821F474110843686020
:10114000C6F86090FFF7B6FC044606E025E000BF55
:10115000FFF7B0FC001B022809D828688001F7D5EA
:101160001BE000BFFFF7A6FC001B022802D90320EA
:10117000BDE8F88F28688001F4D40EE00128F7D08C
:101180006868226A00F48031914204D1616A00F4F7
:101190007010884201D00120EAE70020E8E7000053
:1011A0000010024000004242800442420C00002035
:1011B0000070004010B5401EB0F1807F01D30120C7
:1011C00010BD4FF0E02460610F21601700F05BFD5F
:1011D0000020A06107202061002010BD10B590F80C
:1011E0003C20012A22D0012280F83C20CA688C6869
:1011F00022F4407222434C6822F4806222430C683D
:1012000022F4006222430C6922F4805222434C698A
:1012100022F400522243C969002322F480420A4387
:1012200001684A6480F83C30002010BD022010BDE7
:1012300070B590F83C20012A2CD0012480F83C4065
:10124000022280F83D2003685A689D6822F07006EB
:101250000A6832435A60104B02689A420ED00F4B14
:101260009A420BD0B2F1804F08D00D4B9A4205D074
:101270000C4B9A4202D00C4B9A4204D1496825F09B
:1012800080031943916080F83D40002180F83C10B4
:10129000084670BD022070BD002C014000340140A2
:1012A0000004004000080040000C004030B585B04C
:1012B0000021009101910291039100681049884238
:1012C0001CD11048816941F00401816180690224C8
:1012D00000F0040004904FF48070CDE900040A4D42
:1012E000694628460394FFF7E3FAA002CDE900041B
:1012F0000320039069462846FFF7DAFA05B030BDAF
:10130000002C0140001002400008014070B5044666
:1013100090F83C0000260D4601280FD0012084F8EB
:101320003C006AB1042A1DD0082A2FD00C2A3FD0D5
:101330000126002084F83C00304670BD022070BDBC
:10134000206800F081FB2068816941F0080181611B
:101350002068816921F004018161206881692A691E
:10136000114311E0206800F09FFB2068816941F47F
:10137000006181612068816921F480618161206858
:1013800081692A6941EA02218161D2E7206800F07F
:10139000C1FB2068C16941F00801C1612068C169D1
:1013A00021F00401C1612068C1692A69114311E07B
:1013B000206800F0E3FB2068C16941F40061C1616D
:1013C0002068C16921F48061C1612068C1692A690E
:1013D00041EA0221C161ACE710B5040003D094F8E2
:1013E0003D0010B107E0012010BD002084F83C0052
:1013F000204600F01FF8022084F83D00211D2068DF
:1014000000F0CEFA012084F8460084F83E0084F80B
:101410003F0084F8400084F8410084F8420084F8DA
:10142000430084F8440084F8450084F83D0000201F
:1014300010BD000008B500680649884208D106487A
:10144000816941F400618161806900F4006000906D
:1014500008BD0000002C01400010024010B50446F9
:10146000022249B104290ED0082913D094F8410072
:10147000012816D0012010BD94F83E000128F9D1B2
:1014800084F83E200FE094F83F000128F2D184F860
:101490003F2008E094F840000128EBD184F8402078
:1014A00001E084F841200122206800F0BFFA1349CE
:1014B0002068134A884201D0904203D1436C43F420
:1014C00000434364206888420DD090420BD0B0F1B5
:1014D000804F08D00B49884205D00B49884202D082
:1014E0000A49884204D1816801F00701062903D026
:1014F000016841F001010160002010BD002C014095
:10150000003401400004004000080040000C00408E
:1015100070B5040004D094F84100002510B106E035
:10152000012070BD84F84050204600F023F82420AC
:1015300084F841002068C16821F40051C160204650
:1015400000F044FB2068016921F4904101612068AA
:10155000416921F02A0141612068C16841F40051CC
:10156000C1606564202084F8410084F8420065630E
:10157000002070BD30B585B0002400940194029421
:10158000039400681449884224D11448816941F4C5
:1015900080418161816901F480410491816941F058
:1015A0000401816180690E4D00F0040004904FF445
:1015B00000700090022001900320039069462846A5
:1015C000FFF776F92815CDE900046946284602940C
:1015D000FFF76EF905B030BD003801400010024041
:1015E00000080140FEE7000010B5074C00224FF450
:1015F00080512046FFF758FA20460122BDE81040EE
:101600005103FFF751BA0000000C014010B5064C21
:10161000012211032046FFF747FA002261142046F9
:10162000BDE81040FFF740BA000C014010B5074C70
:1016300000224FF480512046FFF736FA0022611451
:101640002046BDE81040FFF72FBA0000000C014013
:101650003EB500241F48009401941D490294016086
:101660008915816004730475042505614FF46021B8
:101670004460C161FEF7E2FE08B1FEF75EFE0120A4
:10168000CDE900400520029069461248FEF758FE59
:1016900008B1FEF752FE0220019069460D48FEF7A0
:1016A0004FFE08B1FEF749FE032001906946094844
:1016B000FEF746FE08B1FEF740FE69460548019573
:1016C000FEF73EFE002801D0FEF737FE3EBD0000CB
:1016D0000024014010000020094808B5416941F08C
:1016E000010141614069002200F0010000901146B3
:1016F0000B20FFF74BFABDE808400B20FFF738BA84
:101700000010024070B586B000241848009401947F
:1017100002940394816941F020018161816901F0A3
:1017200020010491816941F004018161816901F026
:1017300004010491816941F00801816180690C4EC6
:1017400000F008004FF4704504900022294630460E
:10175000FFF7AAF901200095CDE9010402200390CA
:1017600069463046FFF7A4F806B070BD001002408D
:10177000000C014010B592B000240F941C21684663
:101780001094FEF743FD202107A8FEF73FFD2448F3
:10179000224901600321C0E9011440F2E731C0E9A8
:1017A000031444618461FFF717FE08B1FEF7C5FD1D
:1017B0000F940FA91A481094FFF73AFD08B1FEF7ED
:1017C000BCFD6020CDE900040294039404940594C8
:1017D0000022694612480694FFF798FD08B1FEF70B
:1017E000ACFD0C2269460E48FFF790FD08B1FEF7EC
:1017F000A4FD0794089409944FF400500A94CDE98D
:101800000B4007A906480E94FFF7E8FC08B1FEF765
:1018100094FD0348FFF74AFD12B010BD002C0140B3
:10182000840000200C4810B50A4901604FF416519D
:101830004160002181600C22C160C0E90412816115
:10184000C161FFF765FE002803D0BDE81040FEF738
:1018500074BD10BD00380140CC000020FEE7000040
:1018600070B5114C15460E4601280DD0022812D035
:10187000032808D1FFF7DAFE00F03EF821680020C7
:1018800008642168486370BDFFF7C0FE00F022F8CD
:101890002068066405E0FFF7A7FE00F009F820685D
:1018A00046632068456370BD84000020FEE77047F2
:1018B00010B5074C00224FF480412046FFF7F4F8A2
:1018C00020460122BDE81040D103FFF7EDB800002B
:1018D000000C014010B5074C012291032046FFF790
:1018E000E3F82046BDE8104000224FF40041FFF726
:1018F000DBB80000000C014010B5074C00224FF48B
:1019000080412046FFF7D0F82046BDE81040002275
:101910004FF40041FFF7C8B8000C01407047FFF7D3
:10192000CFB830B595B028216846FEF76FFC14217A
:101930000AA8FEF76BFC18210FA8FEF767FC01212F
:101940000804CDE900100025029502240491CDE998
:1019500007404FF4E01009906846FFF79BFA08B182
:1019600072B6FEE70AA90F2081E831004FF48060CB
:10197000CDE90D0502210AA8FFF7B0F908B172B64A
:10198000FEE74FF4004011900F940FA8FFF730F9D5
:10199000002801D072B6FEE715B030BD70470000D8
:1019A000F0B502681C4B1D4D1D4E1E4F1E4C4FF0D6
:1019B000804C984209D0A04207D0604505D0A8428B
:1019C00003D0B04201D0B84204D122F0700E4A6870
:1019D00042EA0E02984209D0A04207D0604505D0E5
:1019E000A84203D0B04201D0B84203D122F44075DE
:1019F000CA682A434D6922F080022A4302608A683D
:101A0000C2620A688262984201D0A04201D109698B
:101A1000016301214161F0BD002C01400004004040
:101A200000080040000C00400034014010B501F0F7
:101A30001F030121046A99408C430462016A9A40A1
:101A40001143016210BD0000F0B5036A026A22F082
:101A50000102026242688469124E24F073050C6828
:101A60002C4323F002058B682B430D4DA84201D077
:101A7000B04205D123F00807CB683B4323F00403B1
:101A8000A84201D0B04205D14D6922F440721543FD
:101A90008A692A4342608461496841630362F0BDF8
:101AA000002C014000340140F0B5026A036A23F0C3
:101AB00010030362436884690D6824F4E64444EA31
:101AC00005248D6822F0200242EA05120F4D104EC7
:101AD000A84201D0B04206D1CF6822F0800242EA8B
:101AE000071222F04002A84201D0B04207D14D694E
:101AF00023F4406343EA85038D6943EA8503436029
:101B00008461496881630262F0BD0000002C0140DD
:101B100000340140F0B5026A036A23F48073036263
:101B20004368C46922F4007224F073050C68124EF5
:101B30002C438D6842EA05220E4DA84201D0B042E6
:101B400006D1CF6822F4006242EA072222F48062C2
:101B5000A84201D0B04207D14D6923F4405343EA73
:101B600005138D6943EA05134360C4614968C16385
:101B70000262F0BD002C01400034014030B5046A1F
:101B8000026A22F4805202624268C3690D6823F43B
:101B9000E64343EA05238D6824F4005444EA0534FF
:101BA000084DA84202D0084DA84204D14D6922F444
:101BB000804242EA85124260C3614968016404625E
:101BC00030BD0000002C01400034014070B50446D7
:101BD00000680169E26821F4405111430161216903
:101BE000A0680843616908432168CA6841F20C6330
:101BF0009A430243CA6020684169A26921F4407196
:101C0000114341611E492068884202D1FFF70CF957
:101C100001E0FFF7F9F800EBC00101EB001260688A
:101C200064218000B2FBF0F3B3FBF1F36FF0180610
:101C30007343B2FBF0F5B2FBF0F605EB83053223FC
:101C400003EB0515B5FBF1F5B6FBF1F605F0F00574
:101C500005EB0615B2FBF0F6B2FBF0F0B0FBF1F0CD
:101C60006FF01802504306EB800003EB0010B0FB4E
:101C7000F1F0216800F00F002844886070BD00007A
:101C800000380140FEE70907090E002804DB00F1D7
:101C9000E02080F80014704700F00F0000F1E02011
:101CA00080F8141D70470000FEF712FFFFF739FEA1
:101CB000FFF728FDFFF710FDFFF75CFDFFF7C8FCFD
:101CC000FFF7B0FD00210748FFF7C8FB0C210548CE
:101CD000FFF7C4FB4FF4FA74214622460120FFF7B8
:101CE000BFFDF9E784000020010202030405060796
:101CF00008090A0B0C0D0E0F101000000000000068
:101D000000000102030406070809000000000102A8
:101D100003040000341D0008000000201000000033
:101D20006C010008441D0008100000206807000036
:101D30008801000801000000100000000000000001
:041D40000024F40087
:0400000508000131BD
:00000001FF
