:020000040800F2
:10000000C0050020050100081F1F0008AD1D0008E5
:100010001D1F00086D080008A52200080000000050
:10002000000000000000000000000000251F000884
:10003000BF08000800000000211F0008271F00085B
:100040001F0100081F0100081F0100081F01000810
:100050001F010008231F00081F0100081F010008DE
:100060001F0100081F0100081F0100087108000897
:100070001F0100081F0100087D080008890800080A
:100080001F0100081F0100081F0100081F010008D0
:100090001F0100081F0100081F0100081F010008C0
:1000A0001F0100081F0100081F0100081F010008B0
:1000B0001F0100081F0100081F0100081F010008A0
:1000C0001F0100081F0100081F0100081F01000890
:1000D0001F010008992200081F0100081F010008E5
:1000E0001F0100081F0100081F010008DFF810D0E1
:1000F00000F08AFA00480047AD2B0008AFF30080FB
:10010000C00500200648804706480047FEE7FEE796
:10011000FEE7FEE7FEE7FEE7FEE7FEE7FEE7FEE7B7
:10012000931F0008ED000008202A04DB203A21FA82
:1001300002F00021704721FA02F3D040C2F1200200
:100140009140084319467047D2B201E000F8012BF4
:10015000491EFBD270470022F6E710B513460A4647
:1001600004461946FFF7F0FF204610BD96230022F3
:10017000114600F063B800F0004230F000400AD0B1
:10018000C10D01F56071C0F3160042EA0151C208C9
:1001900040071143704700200146704730B50B46B9
:1001A000014600202022012409E021FA02F59D42A7
:1001B00005D303FA02F5491B04FA02F52844151E7B
:1001C000A2F10102F1DC30BD2DE9F05F054600200F
:1001D00092469B4688460646814640241BE02846B8
:1001E000414647462246FFF79FFF53465A46C01AEC
:1001F000914110D311461846224600F017FA2D1AE5
:1002000067EB01084F4622460120002100F00EFA5C
:1002100017EB00094E41201EA4F10104DFDC484623
:1002200031462A464346BDE8F09F0029A8BF7047E3
:10023000401C490008BF20F00100704710B4B0FA1C
:1002400080FC00FA0CF050EA010404BF10BC7047B7
:1002500049B1CCF1200421FA04F411FA0CF118BFD1
:10026000012121430843A3EB0C01CB1D4FEA0061A0
:100270004FEA102042BF002010BC704700EBC35073
:1002800010440029A4BF10BC7047401C490008BF9F
:1002900020F0010010BC70472DE9FE4F804681EA36
:1002A0000300C00F0C46009021F0004123F00045F0
:1002B000B8EB0200A94105D24046214690461C46B3
:1002C0000B46024623F00040104347D0270DC7F3EA
:1002D0000A00C3F30A510290401A019040286BDAD9
:1002E000C3F3130040F4801B0098924620B1002312
:1002F000D2EB030A63EB0B0B01985946C0F14002A5
:10030000504600F093F906460D4650465946019A6C
:1003100000F09BF910EB08006141002487EA1152BC
:1003200084EAE7731A4340D0009A62B3019A012A23
:100330004FEA075215DC001B61EB02014FF000424F
:1003400002EA0752CDE90042001C41F58011324615
:100350002B4600F09BF903B0BDE8F08F40462146E4
:10036000F9E7001B61EB0201001C41F58013001846
:100370005B412018A2F5001747EB030140EAD57056
:10038000B6196D4111E06D084FEA360645EAC075B1
:100390004FEA0752001B61EB0201001C41F580117E
:1003A00049084FEA30000019514132462B4603B04C
:1003B000BDE8F04F00F05BB9009801224000002337
:1003C000D0EB020263EBE073009821464FEAE07441
:1003D000B8EB000061EB0401E9E783F000435BE761
:1003E00081F0004158E72DE9FE4F81EA030404F053
:1003F000004421F0004100944FF0000B23F0004333
:1004000050EA01045ED052EA03045BD0C3F30A54FD
:10041000C1F30A552C44A4F2F3340194A0FB025416
:10042000C1F3130141F48011C3F3130343F48013A8
:1004300001FB024400FB034E840A970A44EA8154FC
:1004400047EA8357A4FB076802958D0A05FB0785D9
:100450004FEA932C04FB0C542705029D4FEA0658E3
:1004600047EA1637B5EB08056EEB070C870E920EC0
:1004700047EA811742EA8312A7FB0201B6EB0B01A0
:1004800064EB00042B0D43EA0C335E1844EB1C5064
:10049000DA465146E7FB0201C5F313044FEA0B337A
:1004A00043EA14534FEA0432019C43EA0603A4F1E1
:1004B0000C040294009CCDE900B400F0E7F803B00E
:1004C000BDE8F08F00200146F9E72DE9F04D81EA03
:1004D000030404F0004B21F0004514464FF0000ADD
:1004E00023F0004150EA050220D054EA01021DD059
:1004F000C5F30A570246C5F31303C1F31300C1F352
:100500000A5640F4801543F48013A7EB0608101B2D
:10051000D64608F2FD3873EB050002D308F1010856
:1005200001E092185B41B8F1000F03DA00200146A8
:10053000BDE8F08D00204FF48011064684460EE0A1
:10054000171B73EB050705D3121B63EB050306436B
:100550004CEA010C49084FEA300092185B4150EA1E
:100560000107EDD152EA030012D082EA040083EAC7
:100570000501084305D0101BAB4106D20122002320
:1005800006E000224FF0004302E06FF0010253103A
:100590001AEB06004CEB085110EB0A0041EB0B0183
:1005A000BDE8F04D00F063B8C1F30A52C1F3130186
:1005B00040F2FF3341F480119A4202DA00200146F2
:1005C000704740F233439A42A2F2334202DC524275
:1005D000FFF7AABD00F02AB830B5041E71F100047F
:1005E00004DB4FF00044404264EB0101141E73F140
:1005F000000405DB1C464FF00043524263EB04034A
:10060000994208BF904230BD064C074D06E0E068B5
:1006100040F0010394E8070098471034AC42F6D349
:10062000FFF768FD9C2C0008BC2C0008202A04DB86
:10063000203A00FA02F1002070479140C2F12003F5
:1006400020FA03F3194390407047202A06DBCB17AA
:10065000203A41FA02F043EAE07306E041FA02F37D
:10066000D040C2F12002914008431946704710B5AE
:10067000141E73F1000408DA401C41F100019218C5
:100680005B411A4301D120F0010010BD2DE9F04D6E
:1006900092469B4611B1B1FA81F202E0B0FA80F2C3
:1006A00020329046FFF7C2FF04460F4640EA0A0098
:1006B00041EA0B0153465A46084313D0114653EA08
:1006C000010019D0C8F140025046FFF72DFD054644
:1006D0000E46504659464246FFF7A8FF084305D04C
:1006E000012004E020463946BDE8F08D0020054396
:1006F00046EAE0762C4337430A986305E40AA0EB08
:1007000008000022FD0A44EA47540A3002D50020BE
:100710000146E9E7010510196941DDE908450019BD
:100720006941BDE8F04DA2E770B5044600688168F4
:10073000C943C90717D1816821F00101816000F028
:1007400021FD05460AE000BF00F01CFD401B022809
:1007500004D920688068C043C00706D0206880683C
:10076000C043C007F0D0002070BDA06A40F0100068
:10077000A062E06A40F00100E062012070BD10B5A7
:100780000146406A826A12F0500F05D0006A026B7F
:10079000BDE8104008461047816A41F4007181624B
:1007A00001688968C1F3424107290CD1017B51B925
:1007B000816A21F480718162816AC90403D4816AEB
:1007C00041F00101816200F0FBF810BD10B5406AF4
:1007D000816A41F040018162C16A41F00401C16255
:1007E00000F0F0F810BD10B5406A00F0EAF810BD56
:1007F000F8B500260446009600688168C943C90719
:100800002DD0816841F001018160164816490068C9
:10081000B0FBF1F000E0401E00900028FBD100F09A
:10082000B1FC054616E000BF00F0ACFC401B0228FE
:1008300010D920688068C043C0070BD0A06A40F080
:100840001000A062E06A40F00100E06284F82460D9
:100850000120F8BD20688068C043C007E4D10020B3
:10086000F8BD00002000002040420F00FEE700001D
:10087000014800F075BA000068000020014800F04F
:100880006FBA00007C010020014800F069BA000046
:100890003801002030B590F840500124AC40C56BC1
:1008A0006C60046863604368102B036803D0996030
:1008B0000068C26030BD9A600068C16030BD70479A
:1008C00072B6FEE7F8B50024009490F8242025467F
:1008D000012A12D0012280F824204A681F23072A07
:1008E0000DD20668776B521E02EB820293409F4343
:1008F0000B6893401F43776319E00220F8BD066838
:100900000D2A0AD2376BD21F02EB820293409F431B
:100910000B6893401F43376309E0F76A0D3A02EB17
:10092000820293409F430B6893401F43F7620A681B
:10093000072306680A2A0AD3F7680A3A02EB42023A
:1009400093409F438B6893401F43F76008E03769EB
:1009500002EB420293409F438B6893401F433761F1
:100960000A68102A01D0112A20D1124B02689A423B
:1009700017D193681B0219D4936843F40003936062
:100980000968102912D10C490C4A0968B1FBF2F12F
:1009900001EB8101490000E0491E00910029FBD1D3
:1009A00004E0816A41F020018162012480F8245032
:1009B0002046F8BD002401402000002040420F00E6
:1009C00070477047704700002DE9F0414FF0000775
:1009D00004003D467ED0A06A002628B9E66284F86D
:1009E0002460204600F07EF82046FFF79DFEA16AB5
:1009F000C90600D420B1A06A40F01000A06269E0EE
:100A0000A16A21F4885141F00201A1626268E169A2
:100A1000237B0A4347EA43010A43A1684FF48077E6
:100A2000B94209D0012907D05FF0000194F814C041
:100A3000BCF1010F02D00AE03946F7E7F3B1A36A2F
:100A400043F02003A362E36A43F00103E3622368F7
:100A5000D3F804C02CF4694C4CEA010CC3F804C070
:100A600021688B68DFF870C003EA0C0313438B60C6
:100A7000A168B9420BD0012909D00CE0DFF85CC0B5
:100A8000A3690CEB43330B4343F40061DFE7218A96
:100A90000D05A5F580152168CB6A23F470032B435F
:100AA000CB62216889680E4B1940914208D1E662F9
:100AB000A16A21F0020141F00101A162BDE8F081CB
:100AC000A06A20F0020040F01000A062E06A40F04E
:100AD0000100E0620120F1E7FDF7E1FF00E0FFFF28
:100AE000FE0E1FFF70B586B00026054600960196E3
:100AF0000296039600681A4988422FD119498869DD
:100B000040F400708861886900F40070049088697E
:100B100040F0040088618869694600F00400049090
:100B20000F200090032001900F4800F03BFA104C7A
:100B30000E48C4E900068020C4E90260400020613C
:100B4000800060612020A061C001E061204600F0CB
:100B5000B1F908B1FFF7B4FE2C62656206B070BD52
:100B6000002401400010024000080140080002403B
:100B7000680000202DE9F047894604463B4900689B
:100B80003B4F0E1D9046884201D0B84207D13068D5
:100B900010F4702F03D001252846BDE8F08794F8A3
:100BA000240001280CD0012084F824002046FFF7FF
:100BB0001FFE05004FF0000004D084F82400EBE78E
:100BC0000220EAE7A16A40F60162914341F4807194
:100BD000A1622168B94218D1326812F4702F14D082
:100BE000A16A41F48011A1623168490505D5A16A65
:100BF00021F4005141F48051A162A16AC9040AD5CF
:100C0000E16A21F00601E16206E0A26A22F48012A4
:100C1000A2624968E9E7E06284F82400216A154885
:100C20008862216A1448C862216A144808632168EE
:100C30006FF0020008602068816841F48071816073
:100C4000216843464A464C31206A00F061F9206829
:100C50008168C1F342410729816803D041F48011C2
:100C6000816099E741F4A001FAE700000024014007
:100C7000002801407F070008E7070008CD070008AB
:100C800010B590F821100022022905D004218163BB
:100C900080F82020012010BD01680B6823F00E03AE
:100CA0000B6001680B6823F001030B6090F8403083
:100CB000C46B012101FA03F3636080F8211080F80E
:100CC0002020104610BD000010B590F8211000241F
:100CD000022903D00421816301243DE001680A68F0
:100CE00022F00E020A6001680A6822F001020A601E
:100CF0001A4A0168914201D1012121E0174A1432B8
:100D0000914201D110211BE0144A2832914201D1B5
:100D1000891515E0114A3C32914201D189140FE046
:100D20000E4A5032914202D14FF4803108E00B4A12
:100D30006432914202D14FF4801101E04FF0807192
:100D4000064A083A5160012180F82110002180F8FC
:100D50002010416B01B18847204610BD08000240B9
:100D60002DE9F05FC16B0C6801680B68D0F840C0DA
:100D7000042202FA0CF2494DDFF824A1494E4A4FF1
:100D8000DFF828B1DFF828E122422CD05A072AD513
:100D90000A68920603D40A6822F004020A60016815
:100DA000A94201D1042219E0514501D1402215E0A8
:100DB000B14202D14FF4806210E0B94202D14FF447
:100DC00080420BE0594502D14FF4802206E0714584
:100DD00002D14FF4800201E04FF080622F490839C0
:100DE0004A60C16A3BE04FF0020808FA0CF818EAC2
:100DF000040F4FF000094FF0010235D05FEA83780D
:100E000032D50B689B0605D40B6823F00A030B60F0
:100E100080F821200168A94201D1022219E0514540
:100E200001D1202215E0B14202D14FF4007210E04E
:100E3000B94202D14FF400520BE0594502D14FF4B0
:100E4000003206E0714502D14FF4001201E04FF08C
:100E50000072124908394A6080F82090816A00299E
:100E60001AD0BDE8F05F0847082505FA0CF52542C1
:100E700012D01B0710D50B6823F00E030B6090F8FF
:100E80004010C36B02FA01F15960826380F821209F
:100E900080F82090016BE2E7BDE8F09F0800024077
:100EA0001C00024030000240440002405800024052
:100EB0006C00024030B528B308C813491422194405
:100EC000B1FBF2F18900C1631049816302214177CE
:100ED0001A6843F6F0718A43D0E900142143D0E93F
:100EE00002452C4321430469214344692143846919
:100EF00021431143196000214163012242770177A8
:100F0000084630BD012030BDF8FFFDBF00000240A3
:100F100070B5044690F82000002501280CD001206F
:100F200084F8200094F821600020012E06D084F877
:100F300020000225284670BD022070BD022684F8DC
:100F40002160A0632068066826F00106066020463E
:100F5000FFF7A0FCE06A00282068016802D041F099
:100F60000E0106E021F0040101602068016841F0F3
:100F70000A0101602068016841F001010160D9E7C0
:100F800070B5044600F0FEF80546601C02D0044827
:100F90000078044400F0F6F8401BA042FAD370BD7C
:100FA000140000202DE9F84FDFF8B8910024A9F1D2
:100FB000040B23460F2709F1040AABF1040EC9E024
:100FC0000125A5402A40AA427DD1674ED1F804C030
:100FD000ACEB0608B44532D014DCBCF1030F3AD0B8
:100FE00009DCBCF1000F2AD0BCF1010F1CD0BCF110
:100FF000020F31D11DE0BCF1110F17D0BCF1120F5F
:101000002AD119E0B8F5881F19D006DCB8F5803F61
:1010100015D0B8F5801F1FD111E0B8F5001F0ED014
:10102000B8F5041F18D10AE0CB6815E0CB681B1D8A
:1010300012E0CB6808330FE0CB680C330CE08B6810
:101040002BB1012B4FF0080303D0456104E00423CA
:1010500002E0056100E00023FF2A01D8064601E016
:1010600000F104064FEA840501D9A5F12005D6F860
:10107000008007FA05FC28EA0C0803FA05F548EA9F
:101080000508C6F800804D68ED0062D5374DAE69A1
:1010900046F00106AE61AD6924F0030605F00105D6
:1010A0000095334D06EB050CDCF80850A607360F0B
:1010B00007FA06F825EA0805DFF8B880404503D1AD
:1010C0004FF0000817E044E0DFF8AC80404502D163
:1010D0004FF001080FE0DFF8A480404502D14FF047
:1010E000020808E0DFF89880404502D14FF003087D
:1010F00001E04FF0040808FA06F848EA0508CCF8C1
:1011000008804D68D9F80060ED024D4601D51643C0
:1011100000E096432E604D68DAF80060AD02554657
:1011200001D5164300E096432E604D68DBF8006061
:10113000AD035D4601D5164300E096432E604D6831
:10114000DEF80060ED03754601D5164300E09643D6
:101150002E60641C0D682A46E5407FF431AFBDE87F
:10116000F88F000008040140000011100010024038
:101170000000014000080140000C01400010014047
:1011800000140140014880687047000014000020EE
:101190000248816802781144816070471400002081
:1011A000074810B5016841F010010160032000F00C
:1011B0007DF80F2000F006F800F024F8002010BDA4
:1011C0000020024070B50D4D04464FF47A71287826
:1011D000B1FBF0F00A490968B1FBF0F000F05AFBEE
:1011E00048B9102C07D200222146501E00F03EF8CC
:1011F00000206C6070BD012070BD00001400002054
:1012000020000020104808B5816941F0010181618A
:10121000816901F001010091C16941F08051C16112
:10122000C069002200F0805000901146052000F0B7
:101230001DF8052000F00CF80448416821F0E06139
:1012400041F00071416008BD001002400000014003
:10125000002809DB00F01F020121914040098000B5
:1012600000F1E020C0F8001170470000F0B40E4B10
:101270001B680C46C3F30223C3F10705042D00D9F4
:101280000425191D072901D2002300E0DB1E0126D9
:1012900006FA05F1491E214099409E40761E1640EF
:1012A0003143F0BC01F010B80CED00E0064900F04D
:1012B000070208684FF6FF03184040EA0220034A7D
:1012C00010430860704700000CED00E00000FA05D4
:1012D0002DE9F84305460078354CC00754D0E06945
:1012E0000026C00008D4E06940F08050E061E06969
:1012F000012600F0805000902E480168C90512D4E4
:101300000168804641F480710160FFF73BFF0746AA
:1013100005E000BFFFF736FFC01B642823D8D8F8CC
:101320000000C005F6D5206A10F4407021D0A988CD
:1013300001F4407181421CD0206A1F49012220F42F
:1013400040700A6000220A602062C00711D0FFF7D7
:1013500019FF074641F2883808E000BFFFF712FF87
:10136000C11B414502D90320BDE8F883206A8007EC
:10137000F4D5206A696820F44070084320621EB1E9
:10138000E06920F08050E0612878800705D560682A
:10139000A96820F44040084360602878C00605D55D
:1013A0006068E96820F48000084360600020DBE7A3
:1013B0000010024000700040400442422DE9F04716
:1013C0000F46050061D0434E306800F00700B84278
:1013D00009D2306820F0070038433060306800F0F0
:1013E0000700B84251D128683B4C810712D540070D
:1013F00003D5606840F4E06060602878000703D59A
:10140000606840F4605060606068A96820F0F00097
:10141000084360602878C00728D06868012810D089
:101420002168022810D0890700292EDA616821F08E
:10143000030101436160FFF7A5FE804641F2883950
:101440000DE021688903EFE78901EDE7FFF79AFED8
:10145000A0EB0801494502D90320BDE8F087606888
:10146000696800F00C00B0EB810FEFD1306800F03C
:101470000700B8420BD9306820F0070038433060CD
:10148000306800F00700B84201D00120E5E7287875
:10149000400705D56068E96820F4E06008436060B3
:1014A0002878000706D56068296920F4605040EA72
:1014B000C100606000F038F86168084AC1F30311A8
:1014C000515CC8400649086006480068FFF77AFE8C
:1014D0000020C2E70020024000100240822C0008D9
:1014E00020000020180000200448054900684968D1
:1014F000044AC1F30221515CC8407047200000201B
:1015000000100240922C0008044805490068496810
:10151000044AC1F3C221515CC8407047200000203A
:1015200000100240922C00080E4A51680E4801F04B
:101530000C03042B11D0082B0FD10C48C1F38343AB
:10154000C903C05C0AD55168084AC1F34041921EE4
:10155000515C054A5043B0FBF1F0704704494843E1
:10156000704700000010024000127A00722C000840
:1015700000093D002DE9F84F040070D02078C04DDF
:10158000C00749D06868C0F38100012807D06868A7
:10159000C0F38100022809D16868C00306D5286815
:1015A000800339D560680028E7D035E06068B0F581
:1015B000803F0BD010B1B0F5A02F11D0286820F4D7
:1015C00080302860286820F4802002E0286840F4F9
:1015D00080302860606890B1FFF7D4FD06460AE0CD
:1015E000286840F480202860F0E700BFFFF7CAFDBC
:1015F000801B642873D828688003F7D50CE0FFF7B8
:10160000C1FD064605E000BFFFF7BCFD801B642856
:10161000F0D828688003F7D420789A4E80074FF0DE
:1016200001094FF0000839D5686810F00C0F07D099
:101630006868C0F38100022809D16868C00306D435
:101640002868800714D52069012808D110E0206996
:10165000B0B1C6F80090FFF795FD074605E00AE136
:10166000FFF790FDC01B0228C4D828688007F7D573
:101670002868616920F0F80040EAC10028600DE0A8
:10168000C6F80080FFF77EFD074604E0FFF77AFD0D
:10169000C01B022823D828688007F7D420780007C9
:1016A0002CD57948A169D9B1C0F80090FFF76AFD3F
:1016B000074604E0FFF766FDC01B02280FD8686AE2
:1016C0008007F7D571484FF4FA510068B0FBF1F08C
:1016D000009000BF0098411E0091FAD20EE080E019
:1016E000C0F80080FFF74EFD074604E0FFF74AFD13
:1016F000C01B022875D8686A8007F7D42078400795
:1017000060D5E8690027C00008D4E86940F080503F
:10171000E861E869012700F0805000905C480168AA
:10172000C90513D40168834641F480710160FFF755
:1017300029FD824606E000BFFFF724FDA0EB0A006A
:1017400064284ED8DBF80000C005F5D5E068012814
:101750000AD008B1052813D0286A20F001002862B9
:10176000286A20F0040002E0286A40F001002862A4
:10177000E06841F2883B98B1FFF704FD82460BE038
:10178000286A40F004002862EEE700BFFFF7FAFC89
:10179000A0EB0A0159455AD8286A8007F6D50CE013
:1017A000FFF7F0FC824605E0FFF7ECFCA0EB0A0136
:1017B00059454CD8286A8007F6D41FB1E86920F053
:1017C0008050E861E06988B36968C1F3810102294A
:1017D00044D00228C6F8608004D0FFF7D3FC04464A
:1017E00038E034E0FFF7CEFC074604E0FFF7CAFC20
:1017F000C01B02282BD828688001F7D4206AB0F5D6
:10180000803F05D16868A16820F400300843686013
:10181000D4E908010843696821F474110843686039
:10182000C6F86090FFF7AEFC044606E025E000BF76
:10183000FFF7A8FC001B022809D828688001F7D50B
:101840001BE000BFFFF79EFC001B022802D903200B
:10185000BDE8F88F28688001F4D40EE00128F7D0A5
:101860006868226A00F48031914204D1616A00F410
:101870007010884201D00120EAE70020E8E700006C
:10188000001002400000424280044242200000203A
:101890000070004010B5401EB0F1807F01D30120E0
:1018A00010BD4FF0E02460610F21601700F00CFDC7
:1018B0000020A06107202061002010BD7047704704
:1018C000F8B5016804460868CA684B6910F00F0F44
:1018D0004FF0000559D003F0010602F4907737432A
:1018E00065D0C10705D0D10503D5616C41F0010178
:1018F0006164410705D5D90703D0616C41F002014D
:101900006164810705D5D90703D0616C41F00401FA
:101910006164010707D502F02001314303D0616CF7
:1019200041F008016164616C00293AD0800604D559
:10193000900602D5204600F0B5FB20684069616C36
:10194000C0F38010090700D460B3204600F075FB97
:1019500020684069400621D52068143050E8001FF7
:1019600021F0400140E80012002AF5D1E06BA8B157
:101970006D494163E06BFFF7A7F9002811D0E06BD8
:10198000416B01B0BDE8F040084783060FD59306D0
:101990000DD52046BDE8F84000F084BB2046FFF797
:1019A0008EFFF8BD2046FFF78AFF6564F8BD266B01
:1019B0002023012E7CD1C6067AD5D60678D50868B4
:1019C0004868009048694FF00206400640D5E16B38
:1019D000086840680004000CE8D0A28D8242E5D976
:1019E000E085886920282DD020680C3050E8001F41
:1019F00021F4807140E80012002AF5D120681430EB
:101A000050E8001F21F0010140E80012002AF5D142
:101A10002068143050E8001F21F0400140E8001217
:101A2000002AF5D184F84230256320680C3050E854
:101A3000001F21F0100140E80012002AF5D1E06BF0
:101A4000FFF71EF96663A08DE18D401A81B22AE08E
:101A5000A08DE18D401A81B2E08D0028A6D000292A
:101A6000A4D022680C3252E8000F20F4907042E8B3
:101A70000007002FF5D12068143050E8002F22F025
:101A8000010240E80027002FF5D184F84230256399
:101A900020680C3050E8002F22F0100240E80023AC
:101AA000002BF5D166632046FFF708FFF8BDFFE77E
:101AB00005062BD5150629D594F841002128F5D126
:101AC000A068B0F5805F01D12069B0B1206A411CE7
:101AD0002162216800784860E08C401E0004000C00
:101AE000E084E3D12068C16821F08001C1602068F2
:101AF000C16841F04001C160D8E7206A0088C0F3A6
:101B000008004860206A801C2062E5E74006CDD5C9
:101B10005006CBD5CA68204622F04002CA6084F83D
:101B2000413000F041F9C1E7951F000870B504008D
:101B300004D094F84100002510B106E0012070BDEA
:101B400084F84050204600F023F8242084F8410017
:101B50002068C16821F40051C160204600F004FBF8
:101B60002068016921F4904101612068416921F0F8
:101B70002A0141612068C16841F40051C160656477
:101B8000202084F8410084F842006563002070BD85
:101B90002DE9F04186B00024064600940194029499
:101BA000039400682E49884257D12E48816941F438
:101BB00080418161816901F480410491816941F032
:101BC000040181618069284D00F0040004904FF405
:101BD000007000900220019003200390694628467F
:101BE000FFF7E0F92815CDE900046946284602947C
:101BF000FFF7D8F91E4D1D484FF08008C5E90004D5
:101C0000C5E902482C6187146C61C5E9064728467E
:101C1000FFF750F908B1FEF753FEF5636E62144DFD
:101C200012484435143801C51020A5E811011048A8
:101C300045F8104944306C61C5E90647FFF73AF9A9
:101C400008B1FEF73DFEB5630022114625206E6205
:101C5000FFF70CFB2520FFF7FBFA06B0BDE8F0818B
:101C600000380140001002400008014058000240C6
:101C70003801002000680449884204D10422034945
:101C8000034800F055B870470038014000000020BC
:101C9000F00000202DE9F843044690F841001F466B
:101CA00016460D46202802D00220BDE8F8837DB1FB
:101CB00076B100206064212084F84100FFF762FAC9
:101CC000A6848046E684A068B0F5805F02D003E079
:101CD0000120EAE7206910B12E4600250EE000261B
:101CE0000CE08021204600F09BFAA0B9AEB116F8B6
:101CF000010B21684860E08C401EE084E08C434684
:101D00004FF0000200970028EBD14FF04001204631
:101D100000F086FA30B10320C7E735F8020BC0F3B4
:101D20000800E6E7202084F841000020BDE700001D
:101D300070B5044690F84100202801D0022070BD03
:101D400049B342B32162A284E2840020606421236B
:101D500084F84130A56B114BAB62A56B104BEB6265
:101D6000A56B104B2B63A36B5863256813462A1D84
:101D7000A06BFFF7CDF821686FF040000860206885
:101D8000143050E8001F41F0800140E80012002AA2
:101D9000F5D1002070BD012070BD0000EF1F0008CC
:101DA00031200008A51F000870477047FEE70000BB
:101DB0003EB500242048009401941E49029401601D
:101DC0008915816004730475042505614FF4602151
:101DD0004460C161FEF7F8FD08B1FEF771FD0094A3
:101DE00001240520CDE9014069461348FEF76AFD4C
:101DF00008B1FEF765FD0094022469460E4801947F
:101E0000FEF760FD08B1FEF75BFD00940324694610
:101E100009480194FEF756FD08B1FEF751FD6946E9
:101E20000548CDE90045FEF74DFD002801D0FEF73D
:101E300047FD3EBD00240140380000201B4808B586
:101E4000416941F0010141614069194900F0010017
:101E50000090184801604FF480414160402181604A
:101E60008021C1600021016141618161C161FFF791
:101E700021F808B1FEF724FD002211460B20FFF7E0
:101E8000F5F90B20FFF7E4F9002211460E20FFF7C9
:101E9000EDF90E20FFF7DCF9002211460F20FFF7C5
:101EA000E5F9BDE808400F20FFF7D2B90010024065
:101EB0001C000240AC000020094808B5816941F0CF
:101EC00020018161816901F020010091816941F067
:101ED00004018161806900F00400009008BD0000E9
:101EE000001002400C4810B50A4901604FF4165129
:101EF0004160002181600C22C160C0E9041281614F
:101F0000C161FFF713FE002803D0BDE81040FEF7C3
:101F1000D7BC10BD00380140F0000020FEE7FEE70E
:101F2000704770477047FFF733B930B593B0282139
:101F30006846FEF710F914210AA8FEF70CF90024F0
:101F400001200F9402250490009510201194059013
:101F50001094129407946846FFF70CFB08B172B610
:101F6000FEE70F20CDE90A040C940D9400210AA885
:101F70000E94FFF723FA08B172B6FEE70FA80F958B
:101F80001194FFF7A5F9002801D072B6FEE713B04F
:101F900030BD704710B5406A0021C185C184FFF78C
:101FA0008EFC10BD70B5446A2068406994F84110F9
:101FB000C0F3C0100025212904D118B1E5842046C2
:101FC00000F062F82068406994F84210C0F3801075
:101FD000222904D118B1E585204600F02EF8606C66
:101FE00040F0100060642046FFF769FC70BD10B53A
:101FF0000146406A09680968890616D40021C1842F
:102000000168143151E8002F22F0800241E80023DA
:10201000002BF5D101680C3151E8002F42F040024D
:1020200041E80023002BF5D110BDFFF7BDFE10BD28
:1020300010B5406AFFF7B9FE10BD01680C3151E8D8
:10204000002F22F4907241E80023002BF5D10168A3
:10205000143151E8002F22F0010241E80023002B47
:10206000F5D1016B012909D101680C3151E8002F2C
:1020700022F0100241E80023002BF5D1202180F846
:10208000421000210163704701680C3151E8002FB4
:1020900022F0C00241E80023002BF5D1202180F876
:1020A0004110704708B590F84210222901D0022053
:1020B00008BD82684FF480539A4201D1016921B171
:1020C000816A9A421BD04AB10AE00268816A52686A
:1020D000C2F308020A80816A891C08E0026972B1B1
:1020E0000268526802F07F020A70816A491C8162AC
:1020F000C18D491E0904090CC18503D01BE002688B
:102100005268F1E70168CA6822F02002CA600168DB
:10211000CA6822F48072CA6001684A6922F001022A
:102120004A61202180F8421000214163026B012A9C
:1021300003D0FFF79FFD002008BD016301680C314B
:1021400051E8002F22F0100241E80023002BF5D1C6
:1021500001680A68D20602D50A6849680091818D33
:10216000FFF7ACFBE7E7000070B5044600680169C3
:10217000E26821F44051114301612169A0680843DC
:10218000616908432168CA6841F20C639A430243BB
:10219000CA6020684169A26921F44071114341611C
:1021A0001E492068884202D1FFF7AEF901E0FFF72F
:1021B0009BF900EBC00101EB001260686421800014
:1021C000B2FBF0F3B3FBF1F36FF018067343B2FB0D
:1021D000F0F5B2FBF0F605EB8305322303EB0515B2
:1021E000B5FBF1F5B6FBF1F605F0F00505EB0615CC
:1021F000B2FBF0F6B2FBF0F0B0FBF1F06FF01802BA
:10220000504306EB800003EB0010B0FBF1F02168B7
:1022100000F00F002844886070BD000000380140C5
:102220002DE9F041984617460E460446069D27E0E4
:10223000681C25D02DB1FEF7A5FFA0EB0800A84231
:102240001ED920680C3050E8001F21F4D07140E8FE
:102250000012002AF5D12068143050E8001F21F048
:10226000010140E80012002AF5D1202084F8410045
:1022700084F84200002084F840000320BDE8F0818B
:102280002068006836EA000004D00020B842CFD0B1
:102290000020F3E70120F9E70148FFF711BB000038
:1022A000F0000020FEE700000FB4054B10B503A9B5
:1022B000044A029800F0EAF810BC5DF814FB000034
:1022C000952B0008240000200907090E002804DBD4
:1022D00000F1E02080F80014704700F00F0000F1DA
:1022E000E02080F8141D704702E008C8121F08C1E2
:1022F000002AFAD170477047002001E001C1121F87
:10230000002AFBD1704700002DE9FF5F82B0002159
:10231000DDE90430020DDDF840B0034318D044F687
:102320001050A2F2FF3242431514119801281FD019
:10233000A5EB0B00401C5FEA000A4FF000064E4F71
:10234000DFF83891B046504615D5CAF1000413E0C5
:10235000119801244AA3012801D16FEA0B010298C8
:10236000119AC0E90031C0E9024206B0BDE8F09F11
:10237000CBF10000DFE704460021404A491842EB58
:102380000450CDE9001012E0E00707D032463B468A
:1023900040464946FEF727F88046894632463B4686
:1023A00010461946FEF71FF806460F466410002C2B
:1023B000EAD1DDE90401DDE90023BAF1000F06DA14
:1023C000FEF711F842464B46FEF70DF805E0FEF722
:1023D0007CF842464B46FEF778F804460E4600224B
:1023E000284BFEF7F9F803D84FF0FF30014607E01D
:1023F0000022254B20463146FDF74EFFFEF7D4F86C
:10240000102409E0002C0ADB0A220023FDF7DCFE81
:10241000039B30321A55641E50EA0102F2D1641C4B
:10242000039AC4F111031444119A012A03D0012222
:1024300008430DD10AE0084304D000204FF0110BEF
:10244000119072E7A3EB0B056D1E0DE05B4504DDFB
:102450004FF0000205F1010504E003DA4FF000023D
:10246000A5F10105002AECD002981199C0E90231CA
:10247000C0E9004579E70000000014400000F03F8B
:10248000300000000000F0430000E03F2DE9FF4F66
:1024900095B09A46884606460025EEE1252877D174
:1024A00000242746F94A0121039400E0044316F86A
:1024B000013F203B01FA03F01042F7D130782A287F
:1024C00011D06FF02F033078A0F13002092A16D80E
:1024D000039A44F0020402EB820203EB420210442E
:1024E000761C0390EFE758F8042B0392002A03DAD6
:1024F000504244F40054039044F00204761C3078B7
:102500002E2816D116F8010F44F004042A280DD005
:102510006FF02F023078A0F13003092B09D807EBB8
:10252000870302EB4303C718761CF3E758F8047BD4
:10253000761C30786C280FD006DC4C2817D0682821
:102540000DD06A2814D104E0742810D07A280FD155
:102550000DE044F400140AE044F4801401E044F473
:1025600040147278824202D104F58014761C761CE5
:10257000307866280BD013DC582877D009DC002887
:1025800075D04528F6D04628F4D047281AD193E1D3
:1025900018E0632835D0642879D0652812D18BE102
:1025A000702873D008DC6728F1D069286FD06E28B6
:1025B0000DD06F2806D1ACE073282CD0752874D0CC
:1025C000782853D05246179990476D1C54E1C4F3B4
:1025D0000250022809D003280DD0D8F80010042892
:1025E0000DD00D6008F1040846E1D8F80010EA1794
:1025F000C1E90052F6E7D8F800100D80F2E70D703F
:10260000F0E718F8041B8DF8001000208DF8010089
:10261000EB46012003E058F804BB4FF0FF306107A0
:102620004FF0000102D40DE009F101018946B942E1
:102630000FDA8145F8DB1BF809100029F4D108E016
:1026400009F1010189468142FADB1BF809100029D2
:10265000F6D103985346A0EB090721463846179A4E
:1026600000F080FA284400EB090507E044E008E1A7
:102670000DE01BF8010B524617999047B9F101097B
:10268000F7D2534621463846179AF2E039E00A213C
:10269000C4F302524FF0000B0091022A06D058F802
:1026A000040BC117032A09D00AE023E008F1070050
:1026B00020F00702F2E80201904605E000B2C117DF
:1026C000042A01D140B2C117002906DA0A460021C6
:1026D000404261EB02012D2202E0220504D52B22AB
:1026E0008DF80420012203E0E20701D02022F7E761
:1026F000914657E00A2100E010214FF0000B0091B5
:102700000BE010214FF0000B44F004040827009167
:1027100003E008204FF0000B0090C4F30252022A9D
:1027200005D058F8040B0021032A08D008E008F16E
:10273000070020F00702F2E80201904603E080B2B1
:10274000042A00D1C0B24FF0000922072AD53278FE
:10275000702A07D0DDF800C08CF0100C5CEA0B0C7E
:1027600005D00EE040228DF80420012208E050EA56
:10277000010306D030238DF804308DF805200222A5
:102780009146009B83F0080353EA0B030AD150EAF9
:10279000010201D1620705D530228DF804204FF0E7
:1027A00001097F1E3278582A04D039A20C920CAA53
:1027B00002920BE03BA2F9E75B46009AFDF704FDAD
:1027C0000C9B9B5C029A521E0292137050EA01020B
:1027D000F2D1029804A9081A00F1200B600702D573
:1027E00024F4803400E001275F4502DDA7EB0B00F5
:1027F00000E0002000EB0B01009003984944401AD0
:102800000390E00306D453462146179A039800F03C
:10281000A9F90544002706E001A85246C05D1799B2
:1028200090476D1C7F1C4F45F6DBE0030CD55346EB
:102830002146179A039800F095F9054404E03020EA
:102840005246179990476D1C0099481E0090002928
:10285000F5DC08E00298029952460078491C029182
:10286000179990476D1CBBF10001ABF1010BF1DC36
:102870005BE100F065F90544761C307800287FF4B0
:102880000DAE19B02846BDE8F08F00000928010000
:1028900030313233343536373839616263646566D6
:1028A0000000000030313233343536373839414298
:1028B0004344454600000000600700D4062708F1A5
:1028C000070020F00700F0E80223804603F0004CE8
:1028D0005FEA0C0001D097A009E0200501D596A081
:1028E00005E0E00701D095A001E0AFF24C001390A5
:1028F000307823F0004365280CD006DC452809D049
:1029000046281DD047287FD13BE0662818D067288D
:102910007AD136E00021112F01DB112000E0781C74
:10292000CDE9000104A90CA8FFF7EEFCDDE90D01DB
:102930000C9A4FF0000B07F10109109200914EE044
:102940004FF000400097CDE9011004A90CA8FFF753
:10295000DBFCDDE90D020C9B0F994FF0000B91465B
:102960001093009211B9791C00EB0109B7EB090033
:1029700003D4C0F1FF3B07F10109A9EB0700019067
:1029800042E0012F00DA01270021112F01DD112083
:1029900000E03846CDE9000104A90CA8FFF7B4FC1B
:1029A000DDE90D010C9A00914FF0000BB946109231
:1029B00021070FD4009A4A4503DA914601E0A9F1B4
:1029C0000109B9F1010F05DD109AA9F10101515C6E
:1029D0003029F4D0B84202DA10F1040F03DA0121F1
:1029E000CDE9011010E0002803DC8344A9EB0001CD
:1029F00002E0411C494500DD8946A0EB0B00401C6C
:102A000001904FF000400290200705D401984845FE
:102A100002DB4FF0FF30019000208DF84B00029850
:102A20000DF14B07B0F1004F25D002200C902B2068
:102A30000D90029800280CDA404202902D200D9053
:102A400007E00A210298FDF7A9FB3031029007F850
:102A5000011D0C99481E0C900029F2DC02980028F8
:102A6000EFD1791E0D980870307800F0200040F00A
:102A7000450007F8020D11A8C01BC01D0290139855
:102A8000007800B1012000EB0901019801EBE07131
:102A9000029801440398401A401E0390E00306D4B4
:102AA00053462146179A039800F05CF805441398A2
:102AB000007818B15246179990476D1CE00323D552
:102AC00053462146179A039800F04CF805441BE042
:102AD000BBF1000F07DB0098584504DD10981799EB
:102AE00010F80B0001E017993020524690470198EA
:102AF0000BF1010B401E05F10105019004D12E20C0
:102B00005246179990476D1CB9F10001A9F10109CE
:102B1000DEDC05E017F8010B5246179990476D1C53
:102B20000299481E02900029F4DC53462146179A68
:102B300003989EE62D0000002B00000020000000FE
:102B40002DE9F041044600251E461746880404D4AA
:102B500005E039462020B0476D1C641EF9D5284693
:102B6000BDE8F0812DE9F041044600251E4690465F
:102B7000C80301D5302700E02027880404D505E0EC
:102B800041463846B0476D1C641EF9D52846BDE85D
:102B9000F081000013B54FF6FF7301226946024829
:102BA000FFF778F800981CBDF000002086B0FEF713
:102BB000F7FAFFF7BAF9FFF77FF9FFF73FF9FFF7E9
:102BC00091F9FFF7F5F8DFF878B004221C491D48A9
:102BD000FDF7D0FF4FF4FA60FEF7D2F95C46DBF860
:102BE0000000FDF7C3FA184D824628606068FDF7C3
:102BF000BDFA06466860A068FDF7B8FA0746A86007
:102C0000E068FDF7B3FAE860FDF7B5FA804689465B
:102C10003846FDF7B0FA04460D463046FDF7ABFAEC
:102C200006460F465046FDF7A6FA0B4602A9024695
:102C300081E8300305A0CDE90067FFF735FBC4E765
:102C40002800002038000020040000200A434830FB
:102C50003D252E660A0A4348313D252E660A0A4361
:102C600048323D252E660A0A4348333D252E66002C
:102C7000010202030405060708090A0B0C0D0E0FDA
:102C8000101000000000000000000102030406070D
:102C9000080900000000010203040000BC2C000829
:102CA0000000002028000000E8220008E42C0008B2
:102CB0002800002098050000F8220008000000000D
:102CC0000000000000000000000000000000000004
:102CD0000100000010000000000000000024F400CB
:042CE00000000000F0
:04000005080000ED02
:00000001FF
